S016000044697374616E636553656E736F722E7372656369
S1130000E8040020F5110000F1110000F1110000D6
S113001000000000000000000000000000000000DC
S1130020000000000000000000000000F1110000CA
S11300300000000000000000F1110000F1110000B8
S1130040F1110000F1110000F1110000F1110000A4
S1130050A1040000F1110000F111000000000000F3
S1130060F1110000F1110000F11100000000000086
S1130070F1110000310B0000410B0000F1110000F0
S1130080F111000045020000F111000010B5064C0A
S11300902378002B07D1054B002B02D0044800E045
S11300A000BF0123237010BD0C00002000000000DD
S11300B090160000084B10B5002B03D007490848E0
S11300C000E000BF07480368002B00D110BD064BB9
S11300D0002BFBD09847F9E7000000001000002037
S11300E09016000090160000000000000368D87904
S11300F0C0097047002303700122427083700371AA
S11301004371C37083717047F0B5C64600B582B0C1
S11301100500140001602A4A106A8023DB000343AF
S113012013620B781C209B0703D502B004BC9046D5
S1130130F0BD0B781738DB07F7D401A9E3780B700F
S11301401130204B984716201F4B984700266B46CA
S11301505E70DE7001236A46137096706946022051
S11301601A4B98472B68984663782B71AE71A37924
S11301705A1E93419B002678A278002A01D00422BB
S113018016432279002A01D0102216436279002AEC
S113019001D008221643DBB2424613700C4F2800EC
S11301A0B8470028FBD1F6B243465E7023786B71E2
S11301B000236B61AB61EB61064B1D60B5E7C04684
S11301C000040040991000000D100000911100007F
S11301D0ED0000005400002070B504000668737838
S11301E0027913437370094D2000A8470028FBD1FE
S11301F033780222134333706379002B04D1044A09
S1130200136C04210B43136470BDC046ED00000061
S1130210000800407047704770470000F8B50400BC
S113022017000668064D2000A8470028FBD1A379D3
S1130230002B02D137810020F8BDB781FBE7C0460F
S1130240ED00000070B5274B1C682568AB79DB070F
S113025007D50123AB712300143302D0637C002B38
S113026031D1AB799B0738D50223AB71A3899BB2FB
S1130270002B2CD0E3899BB25A1C92B2E2815B0022
S1130280A268944663441B889BB2AB81A389013B5B
S11302909BB2A381A3899BB2002B18D100222033E7
S11302A0E2541E3B2B71AB71802189027E330E4ACE
S11302B0D1502300143310D0A37C002B0AD000208B
S11302C0E369984706E00020A3699847C9E723003B
S11302D0143302D0237C002B00D170BD636900204D
S11302E09847FAE75400002000E100E0044A13783C
S11302F002210B43137053785BB2002BFBDB704776
S11303000018004000B583B0124A936940210B43A2
S1130310936101A900230B7005200F4B984705201A
S11303200E4B98470E4A137801210B4313705378F0
S11303305BB2002BFBDB0B4B19004031002204C3E2
S11303409942FCD11022084B1A60084B984703B01D
S113035000BDC04600040040991000000D100000CC
S1130360001800405800002000E100E0ED02000009
S113037000230360436001220272427283720233DB
S1130380C3727047F0B583B005000C0001A90023C7
S11303904B70CB7023790B70237A8B702078154BBC
S11303A0984700201F2D00D8134807222A409200A6
S11303B0E77AA37A002B01D008231F43EB089B00A4
S11303C0C31899690F269640B14397403A000A43EF
S11303D09A61637A002B06D143690122AA409343B0
S11303E0436103B0F0BD42690123AB401343436151
S11303F0F7E7C046911100000018004070B5104B9B
S11304009847E0235B01984214D80E4B18800D4C9A
S113041023889802C01AE02149010B4B9847608059
S113042026000A4D0A4C728800212800A0470028A3
S1130430F9D170BDE0225201024B1A80E7E7C046B1
S1130440790A00002800002005140000980000200C
S11304501D0200001723002A01D0180070478B00EA
S1130460064A9B58002B03D0834205D01D23F4E792
S1130470890088500023F0E70023EEE758000020AD
S11304801723002901D01800704700221F2800D824
S1130490024A01238340D3600023F4E7001800409C
S11304A070B50022104B1A70002310491F25104EFE
S11304B00D4C0AE00D4908E023780133DBB22370C8
S11304C00F2B10D800211F2BF4D92800184001222B
S11304D0824008691042EFD00A619B009B59002BAF
S11304E0EAD09847E8E770BDBC000020001800403F
S11304F058000020064B984208D0064A0023904238
S113050001D0180070470133DBB2FAE70023FBE7A0
S113051000180042001C0042F0B585B004000D0034
S113052016000800824B9847070003AB12221A708A
S11305305A7002AB2E321A8040325A800023A360D4
S1130540E36023616361237663768200794BD45040
S11305502560B378082B06D023712B880520DB0790
S113056005D505B0F0BD1720FA07FAD4F4E7EB7B04
S11305701730DB06F5D42B889B07F2D4337C002B91
S113058000D07AE0337F002B00D082E06A49086A09
S11305907A0002ABD35A03430B62B378082B00D121
S11305A087E033786A46137003ABDF5D6946380031
S11305B0624B98473800624B98473189B3880B43A4
S11305C0B178B279114319437378002B02D0802398
S11305D01B0119432268D37B5BB2002BFBDB298010
S11305E0717B4B1E99418900B37B002B01D0012301
S11305F019432268D37B5BB2002BFBDBFF232B71F7
S1130600002905D02268D37B5BB2002BFBDB697128
S1130610B17AF37A002B01D010231943337B002BDA
S113062001D0202319432268D37B5BB2002BFBDB70
S1130630A9712268D37B5BB2002BFBDB2379042BEB
S11306403FD0082B5ED01720002B00D089E7D37B46
S11306505BB2002BFBDB338D2B822268D37B5BB236
S1130660002BFBDB738D2B832268D37B5BB2002BC7
S1130670FBDBB38D6B83002073E701A901238B702F
S11306800022CA70327E0A704B70307D2D4B984721
S113069078E701A901238B700022CA702432B218B2
S11306A012780A704B701F33F3181878254B98474B
S11306B06CE7086A7A1C520002ABD35A03430B62FC
S11306C06FE7D37B5BB2002BFBDB2823F35C2B743B
S11306D02268D37B5BB2002BFBDB2923F35C2B75F5
S11306E02268D37B5BB2002BFBDB2A23F35C2B76E3
S11306F02268D37B5BB2002BFBDB2B23F35C6B7692
S113070000202EE7D37B5BB2002BFBDBB36A2B61AB
S11307102268D37B5BB2002BFBDBF36AAB612268FC
S1130720D37B5BB2002BFBDB336BEB61002018E760
S1130730F5040000DC0000200004004099100000D3
S11307400D100000911100000268D37B5BB2002BF6
S1130750FBDB0379042B05D0082B0BD01720002BCF
S113076004D07047C9B211740020FAE789B211822B
S11307700020F6E711610020F3E70268D37B5BB247
S1130780002BFBDB0379042B05D0082B09D00020B8
S1130790002B03D07047107CC0B2FBE7108A80B2F4
S11307A0F8E71069F6E7000000B583B06846054B2A
S11307B0984740236A46137003490448044B9847FA
S11307C003B000BDF500000000280042980000209E
S11307D00901000010B582B001A8074B9847074CE7
S11307E001AA00212000064B984700212000054B58
S11307F0984702B010BDC0461502000098000020C2
S1130800170200001902000000B583B001A90123FA
S11308104B7000228A700B700220024B984703B081
S113082000BDC046BD0B000010B50248024B9847FE
S113083010BDC04698000020D901000010B5044B3B
S11308409847044B9847044B9847044B984710BD6E
S113085009080000A9070000D507000029080000C6
S113086070B500210548064B9847064C80256D005D
S1130870A5610A20044B9847656170BDC000002043
S11308804907000000440041910B000010B50C4BD7
S11308901B6A9B050CD40B480B4B98470B4B1B88CE
S11308A0C01A80B20A4B188001220A4B1A7010BD7C
S11308B00448054B984780B2044B1880F7E7C046BC
S11308C000440041C00000207B07000050000020CD
S11308D04C0000204E00002070B582B001AC012312
S11308E063700026A670237021000820054DA847D8
S11308F080225200044B5A61267021000920A84727
S113090002B070BDBD0B00000044004100B58FB0C3
S113091001AA0023002113709370937113810020A6
S113092050709172D1721173917351731174536138
S113093093611177136253621385538593858023E2
S1130940DB00938002490348034B98470FB000BD76
S113095000180042C00000201905000010B5002254
S113096002490348034B984710BDC0466108000084
S1130970C0000020990A000010B50F4B1A68D37B01
S11309805BB2002BFBDB138802210B4313800A4C60
S113099020680A4B98470A4B1A5C1F231340012214
S11309A011009940074B1960637E01210B43637664
S11309B023685A7310BDC046C0000020F50400002F
S11309C02416000000E100E010B584B001AC200062
S11309D0084B98470923019390231B036360022368
S11309E023720133E37221000720034B984704B0BC
S11309F010BDC046710300008503000010B500223D
S1130A0007210248024B984710BDC0468D080000DC
S1130A105504000010B5024B9847024B984710BD8F
S1130A20C9090000FD09000010B500210720014B91
S1130A30984710BD8104000010B5034B9847034B41
S1130A409847034B984710BDD90800000D090000D2
S1130A505D09000010B5044B9847044B9847044BBC
S1130A609847044B984710BD390A0000150A000046
S1130A7079090000290A0000054A1378002BFCD0EC
S1130A800022034B1A70034B188880B27047C0468B
S1130A904E0000204C000020931C9B001950022A99
S1130AA009D0032A0CD0012393401A00037E134378
S1130AB0037600207047037E102213430376F8E781
S1130AC0037E202213430376F3E7000070B5800011
S1130AD0164BC45823689D7B227E637E13401D40C1
S1130AE0EB0706D4AB070BD4EB0610D4AB0615D436
S1130AF070BD2000A3689847012322689373F1E72F
S1130B002000E3689847022322689373ECE72000EF
S1130B1023699847102322689373E7E720006369E9
S1130B209847236820229A73E2E7C046DC0000203D
S1130B3010B50020014B984710BDC046CD0A0000F7
S1130B4010B50120014B984710BDC046CD0A0000E6
S1130B5070B50020084B98470500084CFA2189001D
S1130B60A047074B186007492800A047064B1860A8
S1130B700522064B1A6070BD810F0000F1120000BF
S1130B800000002040420F000400002010E000E0BC
S1130B9030B5084B1C68084A0025802149020138F9
S1130BA007D3002CFBD05460956013680B42FCD033
S1130BB0F5E730BD0400002010E000E000B583B08C
S1130BC001AB80221A700A785A704A789A708A782F
S1130BD0DA701900014B984703B000BD9111000071
S1130BE0704700000C4B1B68002B06D1EFF31083F9
S1130BF0002B07D00022094B1A70074A13680133EF
S1130C001360704772B6BFF35F8F0022044B1A70F3
S1130C100132024B1A70F0E72C0000203000002053
S1130C2008000020084B1A68013A1A601B68002B60
S1130C3009D1064B1B78002B05D00122044B1A70F6
S1130C40BFF35F8F62B670472C0000203000002095
S1130C500800002010B5082803D880001B4B1B583F
S1130C609F46002030E01A4B18692DE0194B1B6A8F
S1130C709B059B0F1848D84026E0154B586923E084
S1130C80134B1B6800209B071ED512491022CB680A
S1130C901A42FCD00E4B1B685B0701D40F4813E0CB
S1130CA000200F4B98470A4B9B681B041B0C5843AE
S1130CB00AE05023074AD35C00205B0704D5044BA9
S1130CC0D86801E08020000210BDC046281600004C
S1130CD0340000200008004000127A00006CDC029E
S1130CE0B510000070B50C490B6A0478857840781B
S1130CF00122104080014026B34303432A40D2011D
S1130D0080208343134303222240120203480340FA
S1130D1013430B6270BDC04600080040FFFCFFFF98
S1130D20082803D88000254B1B589F46172044E011
S1130D30234A136A02210B43136200203DE0204A38
S1130D40936902210B439361002036E01C4A138A05
S1130D5002210B43138200202FE0194A938A0221B7
S1130D600B439382002028E016490B6802221343A8
S1130D700B60134B9A8419000E32CB681A42FCD0D4
S1130D80104A91680E4BD96252689A6200229A8482
S1130D9019001032CB681A42FCD00A4B1B689BB274
S1130DA0074A9384002008E0054944228B5C022012
S1130DB003438B54002000E0002070474C160000D1
S1130DC0000800403400002030B585B0C222D200B3
S1130DD01A4B9A601A4A53681E218B4353600123AD
S1130DE06A4613700024174DE0B26946A8470134DF
S1130DF0182CF9D103A800244470012585700470CF
S1130E00114B98470620114B9847114B9847114BAB
S1130E101C725C729C72DC7201956B465C700623DA
S1130E206A46137014725472694600200A4B98473C
S1130E3000200A4B984705B030BDC046000800406A
S1130E400040004199100000E50C0000210D000055
S1130E50610E000000040040850E00003D0F0000FC
S1130E60064A936908210B4393610122044B1A70CB
S1130E7019000B781342FCD17047C04600040040AF
S1130E80000C004070B5060004000D782D020543E7
S1130E904B78002B02D08023DB021D434B7A002BBE
S1130EA002D080231B031D434868012810D9431E28
S1130EB0184234D1022830D90223002201325B00C7
S1130EC09842FBD812023243140080235B031D4373
S1130ED00B7A002B02D080239B031D43134A5378C3
S1130EE05BB2002BFBDB124B9847124B1E700F4A70
S1130EF053785BB2002BFBDB0C4B9C601A005378DD
S1130F005BB2002BFBDB094A5368802149020B408A
S1130F101D435560084B984770BD0022D2E7040278
S1130F20344380239B021D43D2E7C046000C00409B
S1130F30E50B0000080C0040250C000010B504006F
S1130F400B4A53785BB2002BFBDB0A4B98470A4BE6
S1130F501C70074A53785BB2002BFBDB044A5168D0
S1130F6080235B020B435360044B984710BDC0467B
S1130F70000C0040E50B0000040C0040250C0000B0
S1130F8070B504001A4A53785BB2002BFBDB194B93
S1130F909847194B1C70164A53785BB2002BFBDB45
S1130FA0134E7068C004C00E144B98470500124BD2
S1130FB01C707668F602F60F114B1C700C4A5378BD
S1130FC05BB2002BFBDB0A4B9C682402240C0D4B08
S1130FD09847002E07D1012C07D9210028000A4B7D
S1130FE09847050001E00134E540280070BDC04683
S1130FF0000C0040E50B0000040C0040550C000000
S1131000080C0040250C0000F112000010B504008B
S1131010064B9847064B1C70064A53888021C90129
S11310200B435380044B984710BDC046E50B0000AA
S1131030020C0040000C0040250C000010B5040018
S11310400F4B98470F4B1C700F4A53881B05180F02
S113105053880E490B40538053880D490B405380ED
S113106011008022D2014B881342FCD106494A88E0
S113107003020648024013434B80064B984710BDB9
S1131080E50B0000020C0040000C0040FFF0FFFFE5
S1131090FFBFFFFF250C000010B50C7824020443A9
S11310A0024B9847A4B2024B5C8010BD3D10000077
S11310B0000C004010B50400064B9847064B1C700A
S11310C0064B5C882405240F054B98472000054BEC
S11310D0984710BDE50B0000020C0040000C0040D6
S11310E0250C0000810F000030B5D378002B35D1DA
S11310F01378802B29D01B06802464022343547860
S11311000225AC4306D19478002C20D18024A4027B
S1131110234341605478013C012C1CD90D042D0C4F
S1131120A024E4052C431C4384620D0CD024240623
S11311302C431C438462D478002C22D15B031CD53D
S11311409378012B1ED0416117E00023D7E7C02418
S1131150E4022343DDE70D4C2340DFE741600C0448
S1131160240CA023DB05234383620C0CD0231B0631
S113117023438362D378002B03D15378013B012BA3
S113118002D930BD8161F8E78160FAE7FFFFFBFF18
S113119010B50A00C1090023002904D14309DB0169
S11311A005498C4663441F242040012181401800D6
S11311B0024B984710BDC04600440041E9100000AE
S11311C07047000010B5054B9847054B9847054BF1
S11311D09847054B9847054B984710BDC90D00002B
S11311E0E10B0000C111000005030000C111000063
S11311F0FEE7000010B5264A264B9A4211D01A0089
S1131200254B9A420DD2254A03339B1A9B0801337E
S11312109B0000221F481E498C58845004329A4275
S1131220FAD11F4A1F4B9A420AD2D3431D495B1875
S113123003218B4304339B18002102C29342FCD147
S1131240194AFF21194B8B439360FD3990235B00AE
S1131250174AD150174B9A7B2E318A4320210A43D7
S11312609A739A7B0C218A4308210A439A739A7BC6
S113127003218A4302210A439A730F4A5368802147
S11312800B4353600D4B98470D4B9847FEE7C04600
S113129090160000000000200C0000200400002034
S11312A00C000020E400002000ED00E0000000003D
S11312B0007000410048004100400041DD1500007D
S11312C0C512000010B5054B9847054B9847054BD0
S11312D09847054B9847054CA047FDE7C51100000A
S11312E0510B0000550A00003D080000FD030000FA
S11312F0002243088B4274D303098B425FD3030A51
S11313008B4244D3030B8B4228D3030C8B420DD363
S1131310FF22090212BA030C8B4202D312120902F1
S113132065D0030B8B4219D300E0090AC30B8B422F
S113133001D3CB03C01A5241830B8B4201D38B03DD
S1131340C01A5241430B8B4201D34B03C01A524182
S1131350030B8B4201D30B03C01A5241C30A8B42C5
S113136001D3CB02C01A5241830A8B4201D38B02B0
S1131370C01A5241430A8B4201D34B02C01A524154
S1131380030A8B4201D30B02C01A5241CDD2C309C6
S11313908B4201D3CB01C01A524183098B4201D342
S11313A08B01C01A524143098B4201D34B01C01A2D
S11313B0524103098B4201D30B01C01A5241C308A5
S11313C08B4201D3CB00C01A524183088B4201D314
S11313D08B00C01A524143088B4201D34B00C01A00
S11313E05241411A00D20146524110467047FFE76C
S11313F001B5002000F0F0F802BDC0460029F7D086
S113140076E7704703460B437FD4002243088B42A0
S113141074D303098B425FD3030A8B4244D3030B77
S11314208B4228D3030C8B420DD3FF22090212BA3C
S1131430030C8B4202D31212090265D0030B8B42B8
S113144019D300E0090AC30B8B4201D3CB03C01AA2
S11314505241830B8B4201D38B03C01A5241430B7D
S11314608B4201D34B03C01A5241030B8B4201D36D
S11314700B03C01A5241C30A8B4201D3CB02C01AD8
S11314805241830A8B4201D38B02C01A5241430A50
S11314908B4201D34B02C01A5241030A8B4201D33F
S11314A00B02C01A5241CDD2C3098B4201D3CB01E6
S11314B0C01A524183098B4201D38B01C01A524195
S11314C043098B4201D34B01C01A524103098B4299
S11314D001D30B01C01A5241C3088B4201D3CB0084
S11314E0C01A524183088B4201D38B00C01A524167
S11314F043088B4201D34B00C01A5241411A00D217
S113150001465241104670475DE0CA0F00D049427F
S1131510031000D34042534000229C4603098B42EF
S11315202DD3030A8B4212D3FC22890112BA030A77
S11315308B420CD3890192118B4208D389019211F9
S11315408B4204D389013AD0921100E08909C3097E
S11315508B4201D3CB01C01A524183098B4201D380
S11315608B01C01A524143098B4201D34B01C01A6B
S1131570524103098B4201D30B01C01A5241C308E3
S11315808B4201D3CB00C01A524183088B4201D352
S11315908B00C01A5241D9D243088B4201D34B006D
S11315A0C01A5241411A00D20146634652415B10AF
S11315B0104601D34042002B00D549427047634690
S11315C05B1000D3404201B5002000F005F802BDD5
S11315D00029F8D016E770477047C04670B500265A
S11315E00C4D0D4C641BA410A64209D1002600F03A
S11315F03FF80A4D0A4C641BA410A64205D170BDE5
S1131600B300EB5898470136EEE7B300EB58984720
S11316100136F2E77C1600007C1600007C16000000
S1131620801600000D0E0000660C0000620C000025
S1131630620C0000C40C0000C40C00007A0C000012
S11316406C0C0000800C0000B20C00004C0D00007B
S11316502C0D00002C0D0000B80D00003E0D000004
S11316605A0D0000300D0000680D0000A80D0000A8
S1131670F8B5C046F8BC08BC9E467047B5000000EB
S1131680F8B5C046F8BC08BC9E4670478D00000003
S10F1690401F00000800000001000000E2
S90311F5F6
