:10000000980C002025100000211000002110000095
:1000100000000000000000000000000000000000E0
:10002000000000000000000000000000211000009F
:10003000000000000000000021100000211000005E
:1000400021100000211000002110000021100000EC
:100050002903000021100000211000000000000012
:1000600021100000211000002110000000000000FD
:10007000211000006109000071090000211000003A
:1000800021100000ED0000002110000010B5064C0A
:100090002378002B07D1054B002B02D0044800E049
:1000A00000BF0123237010BD1000002000000000DD
:1000B000E4120000084B10B5002B03D00749084894
:1000C00000E000BF07480368002B00D110BD064BBD
:1000D000002BFBD09847F9E7000000001400002037
:1000E000E4120000E41200000000000070B5274B8D
:1000F0001C682568AB79DB0707D50123AB712300AA
:10010000143302D0637C002B31D1AB799B0738D5F7
:100110000223AB71A3899BB2002B2CD0E3899BB245
:100120005A1C92B2E2815B00A268944663441B8829
:100130009BB2AB81A389013B9BB2A381A3899BB2F4
:10014000002B18D100222033E2541E3B2B71AB71DF
:10015000802189027E330E4AD1502300143310D0FF
:10016000A37C002B0AD00020E369984706E000201A
:10017000A3699847C9E72300143302D0237C002BDE
:1001800000D170BD636900209847FAE72C08002071
:1001900000E100E0044A137802210B431370537806
:1001A0005BB2002BFBDB70470018004000B583B04A
:1001B000124A936940210B43936101A900230B70FC
:1001C00005200F4B984705200E4B98470E4A137891
:1001D00001210B43137053785BB2002BFBDB0B4BFD
:1001E00019004031002204C39942FCD11022084B6F
:1001F0001A60084B984703B000BDC0460004004099
:10020000C90E00003D0E000000180040300800201C
:1002100000E100E09501000000230360436001223B
:100220000272427283720233C3727047F0B583B0B8
:1002300005000C0001A900234B70CB7023790B70D3
:10024000237A8B702078154B984700201F2D00D8FB
:10025000134807222A409200E77AA37A002B01D0A4
:1002600008231F43EB089B00C31899690F2696408B
:10027000B14397403A000A439A61637A002B06D152
:1002800043690122AA409343436103B0F0BD426930
:100290000123AB4013434361F7E7C046C10F0000A1
:1002A0000018004070B50A4D2C680A4B984764004E
:1002B000094BE0522B680133C8225200934202D00E
:1002C000034A136070BD0022014B1A60FAE7C04672
:1002D0002C00002069080000300000201723002AAD
:1002E00001D0180070478B00064A9B58002B03D0A2
:1002F000834205D01D23F4E7890088500023F0E7EE
:100300000023EEE7300800201723002901D0180051
:10031000704700221F2800D8024A01238340D3607F
:100320000023F4E70018004070B50022104B1A704B
:10033000002310491F25104E0D4C0AE00D4908E01E
:1003400023780133DBB223700F2B10D800211F2B31
:10035000F4D9280018400122824008691042EFD0E9
:100360000A619B009B59002BEAD09847E8E770BDD3
:10037000700800200018004030080020064B98420A
:1003800008D0064A0023904201D01800704701337C
:10039000DBB2FAE70023FBE700180042001C004232
:1003A000F0B585B004000D0016000800824B984798
:1003B000070003AB12221A705A7002AB2E321A8059
:1003C00040325A800023A360E36023616361237697
:1003D00063768200794BD4502560B378082B06D021
:1003E00023712B880520DB0705D505B0F0BD17204C
:1003F000FA07FAD4F4E7EB7B1730DB06F5D42B8849
:100400009B07F2D4337C002B00D07AE0337F002BA3
:1004100000D082E06A49086A7A0002ABD35A0343EB
:100420000B62B378082B00D187E033786A461370EB
:1004300003ABDF5D69463800624B98473800624B7A
:1004400098473189B3880B43B178B2791143194386
:100450007378002B02D080231B0119432268D37BC1
:100460005BB2002BFBDB2980717B4B1E994189001D
:10047000B37B002B01D0012319432268D37B5BB2ED
:10048000002BFBDBFF232B71002905D02268D37BD7
:100490005BB2002BFBDB6971B17AF37A002B01D0E0
:1004A00010231943337B002B01D0202319432268EA
:1004B000D37B5BB2002BFBDBA9712268D37B5BB2E1
:1004C000002BFBDB2379042B3FD0082B5ED01720B9
:1004D000002B00D089E7D37B5BB2002BFBDB338D95
:1004E0002B822268D37B5BB2002BFBDB738D2B83CB
:1004F0002268D37B5BB2002BFBDBB38D6B830020C8
:1005000073E701A901238B700022CA70327E0A7042
:100510004B70307D2D4B984778E701A901238B70F4
:100520000022CA702432B21812780A704B701F333E
:10053000F3181878254B98476CE7086A7A1C520024
:1005400002ABD35A03430B626FE7D37B5BB2002B42
:10055000FBDB2823F35C2B742268D37B5BB2002B7C
:10056000FBDB2923F35C2B752268D37B5BB2002B6A
:10057000FBDB2A23F35C2B762268D37B5BB2002B58
:10058000FBDB2B23F35C6B7600202EE7D37B5BB287
:10059000002BFBDBB36A2B612268D37B5BB2002BA1
:1005A000FBDBF36AAB612268D37B5BB2002BFBDB26
:1005B000336BEB61002018E77D03000090080020FA
:1005C00000040040C90E00003D0E0000C10F0000F5
:1005D0000268D37B5BB2002BFBDB0379042B05D0D5
:1005E000082B0BD01720002B04D07047C9B2117410
:1005F0000020FAE789B211820020F6E7116100209D
:10060000F3E70268D37B5BB2002BFBDB0379042B9F
:1006100005D0082B09D00020002B03D07047107C98
:10062000C0B2FBE7108A80B2F8E71069F6E7000075
:1006300070B500210548064B9847064C80256D0093
:10064000A5610A20044B9847656170BD74080020BD
:10065000D105000000440041C109000010B50C4B59
:100660001B6A9B050CD40B480B4B98470B4B1B8804
:10067000C01A80B20A4B188001220A4B1A7010BDB2
:100680000448054B984780B2044B1880F7E7C046F2
:1006900000440041740800200306000028080020E0
:1006A000240800202608002070B582B001AC012388
:1006B00063700026A670237021000820054DA8470E
:1006C00080225200044B5A61267021000920A8475D
:1006D00002B070BDED0900000044004100B58FB0CC
:1006E00001AA0023002113709370937113810020DD
:1006F00050709172D172117391735173117453616F
:100700009361117713625362138553859385C023D8
:100710009B00938002490348034B98470FB000BDEC
:100720000018004274080020A103000010B5002248
:1007300002490348034B984710BDC04631060000EC
:1007400074080020C908000010B50F4B1A68D37B4D
:100750005BB2002BFBDB138802210B4313800A4C96
:1007600020680A4B98470A4B1A5C1F23134001224A
:1007700011009940074B1960637E01210B4363769A
:1007800023685A7310BDC046740800207D03000022
:100790007812000000E100E010B584B001AC200048
:1007A000084B98470923019390231B03636002239E
:1007B00023720133E37221000720034B984704B0F2
:1007C00010BDC046190200002D02000010B5002225
:1007D00007210248024B984710BDC0465D06000045
:1007E000DD02000010B5024B9847024B984710BD40
:1007F00099070000CD07000010B500210720014B2C
:10080000984710BD0903000010B5034B9847034BF0
:100810009847034B984710BDA9060000DD0600006D
:100820002D07000010B5044B9847044B9847044B24
:100830009847044B984710BD09080000E5070000E1
:1008400049070000F9070000054A1378002BFCD087
:100850000022034B1A70034B188880B27047C046C1
:10086000260800202408002010B5134B98470200EA
:10087000124B1B78002B04D00021104B1970104B29
:1008800018800F4B19880B1ADC171B196340282B93
:100890000EDD0C4B1B78022B04D80133094A137070
:1008A0000A0007E00021074B1970054B188001E092
:1008B000034B1880100010BD490800000000002004
:1008C0000208002000080020931C9B001950022AF7
:1008D00009D0032A0CD0012393401A00037E13434E
:1008E000037600207047037E102213430376F8E757
:1008F000037E202213430376F3E7000070B58000E7
:10090000164BC45823689D7B227E637E13401D4096
:10091000EB0706D4AB070BD4EB0610D4AB0615D40B
:1009200070BD2000A3689847012322689373F1E704
:100930002000E3689847022322689373ECE72000C5
:1009400023699847102322689373E7E720006369BF
:100950009847236820229A73E2E7C0469008002057
:1009600010B50020014B984710BDC046FD0800009F
:1009700010B50120014B984710BDC046FD0800008E
:1009800070B50020084B98470500084CFA218900F3
:10099000A047074B186007492800A047064B18607E
:1009A0000522064B1A6070BDB10D00001911000040
:1009B0000400002040420F000800002010E000E08A
:1009C00030B5084B1C68084A0025802149020138CF
:1009D00007D3002CFBD05460956013680B42FCD009
:1009E000F5E730BD0800002010E000E000B583B05E
:1009F00001AB80221A700A785A704A789A708A7805
:100A0000DA701900014B984703B000BDC10F000018
:100A1000704700000C4B1B68002B06D1EFF31083CE
:100A2000002B07D00022094B1A70074A13680133C4
:100A30001360704772B6BFF35F8F0022044B1A70C9
:100A40000132024B1A70F0E7040800200808002069
:100A50000C000020084B1A68013A1A601B68002B32
:100A600009D1064B1B78002B05D00122044B1A70CC
:100A7000BFF35F8F62B670470408002008080020AB
:100A80000C00002010B5082803D880001B4B1B5811
:100A90009F46002030E01A4B18692DE0194B1B6A65
:100AA0009B059B0F1848D84026E0154B586923E05A
:100AB000134B1B6800209B071ED512491022CB68E0
:100AC0001A42FCD00E4B1B685B0701D40F4813E0A1
:100AD00000200F4B98470A4B9B681B041B0C584384
:100AE0000AE05023074AD35C00205B0704D5044B7F
:100AF000D86801E08020000210BDC0467C120000D2
:100B00000C0800200008004000127A00006CDC0293
:100B1000E50E000070B50C490B6A047885784078C2
:100B20000122104080014026B34303432A40D201F2
:100B300080208343134303222240120203480340D0
:100B400013430B6270BDC04600080040FFFCFFFF6E
:100B5000082803D88000254B1B589F46172044E0E7
:100B6000234A136A02210B43136200203DE0204A0E
:100B7000936902210B439361002036E01C4A138ADB
:100B800002210B43138200202FE0194A938A02218D
:100B90000B439382002028E016490B68022213437E
:100BA0000B60134B9A8419000E32CB681A42FCD0AA
:100BB000104A91680E4BD96252689A6200229A8458
:100BC00019001032CB681A42FCD00A4B1B689BB24A
:100BD000074A9384002008E0054944228B5C0220E8
:100BE00003438B54002000E000207047A012000057
:100BF000000800400C08002030B585B0C222D200A9
:100C00001A4B9A601A4A53681E218B435360012382
:100C10006A4613700024174DE0B26946A8470134B4
:100C2000182CF9D103A800244470012585700470A4
:100C3000114B98470620114B9847114B9847114B81
:100C40001C725C729C72DC7201956B465C700623B0
:100C50006A46137014725472694600200A4B984712
:100C600000200A4B984705B030BDC0460008004040
:100C700000400041C90E0000150B0000510B0000A0
:100C8000910C000000040040B50C00006D0D000048
:100C9000064A936908210B4393610122044B1A70A1
:100CA00019000B781342FCD17047C0460004004085
:100CB000000C004070B5060004000D782D020543BD
:100CC0004B78002B02D08023DB021D434B7A002B94
:100CD00002D080231B031D434868012810D9431EFE
:100CE000184234D1022830D90223002201325B009D
:100CF0009842FBD812023243140080235B031D4349
:100D00000B7A002B02D080239B031D43134A537898
:100D10005BB2002BFBDB124B9847124B1E700F4A45
:100D200053785BB2002BFBDB0C4B9C601A005378B2
:100D30005BB2002BFBDB094A5368802149020B4060
:100D40001D435560084B984770BD0022D2E704024E
:100D5000344380239B021D43D2E7C046000C004071
:100D6000150A0000080C0040550A000010B50400E8
:100D70000B4A53785BB2002BFBDB0A4B98470A4BBC
:100D80001C70074A53785BB2002BFBDB044A5168A6
:100D900080235B020B435360044B984710BDC04651
:100DA000000C0040150A0000040C0040550A000029
:100DB00070B504001A4A53785BB2002BFBDB194B69
:100DC0009847194B1C70164A53785BB2002BFBDB1B
:100DD000134E7068C004C00E144B98470500124BA8
:100DE0001C707668F602F60F114B1C700C4A537893
:100DF0005BB2002BFBDB0A4B9C682402240C0D4BDE
:100E00009847002E07D1012C07D9210028000A4B52
:100E10009847050001E00134E540280070BDC04658
:100E2000000C0040150A0000040C0040850A000078
:100E3000080C0040550A00001911000010B504000C
:100E4000064B9847064B1C70064A53888021C901FF
:100E50000B435380044B984710BDC046150A000051
:100E6000020C0040000C0040550A000010B50400C0
:100E70000F4B98470F4B1C700F4A53881B05180FD8
:100E800053880E490B40538053880D490B405380C3
:100E900011008022D2014B881342FCD106494A88B6
:100EA00003020648024013434B80064B984710BD8F
:100EB000150A0000020C0040000C0040FFF0FFFF8C
:100EC000FFBFFFFF550A000010B50C782402044351
:100ED000024B9847A4B2024B5C8010BD6D0E00001F
:100EE000000C004010B50400064B9847064B1C70E0
:100EF000064B5C882405240F054B98472000054BC2
:100F0000984710BD150A0000020C0040000C00407C
:100F1000550A0000B10D000030B5D378002B35D153
:100F20001378802B29D01B06802464022343547835
:100F30000225AC4306D19478002C20D18024A40251
:100F4000234341605478013C012C1CD90D042D0C25
:100F5000A024E4052C431C4384620D0CD0242406F9
:100F60002C431C438462D478002C22D15B031CD513
:100F70009378012B1ED0416117E00023D7E7C024EE
:100F8000E4022343DDE70D4C2340DFE741600C041E
:100F9000240CA023DB05234383620C0CD0231B0607
:100FA00023438362D378002B03D15378013B012B79
:100FB00002D930BD8161F8E78160FAE7FFFFFBFFEE
:100FC00010B50A00C1090023002904D14309DB013F
:100FD00005498C4663441F242040012181401800AC
:100FE000024B984710BDC04600440041190F000055
:100FF0007047000010B5054B9847054B9847054BC7
:101000009847054B9847054B984710BDF90B0000D2
:10101000110A0000F10F0000AD010000F10F000007
:10102000FEE7000010B5264A264B9A4211D01A005E
:10103000254B9A420DD2254A03339B1A9B08013354
:101040009B0000221F481E498C58845004329A424B
:10105000FAD11F4A1F4B9A420AD2D3431D495B184B
:1010600003218B4304339B18002102C29342FCD11D
:10107000194AFF21194B8B439360FD3990235B0084
:10108000174AD150174B9A7B2E318A4320210A43AD
:101090009A739A7B0C218A4308210A439A739A7B9C
:1010A00003218A4302210A439A730F4A536880211D
:1010B0000B4353600D4B98470D4B9847FEE7C046D6
:1010C000E4120000000000201000002004000020B6
:1010D000100000209808002000ED00E00000000053
:1010E0000070004100480041004000413112000002
:1010F000F510000010B5044B9847044B9847044B7B
:101100009847044CA047FDE7F50F00008109000057
:1011100025080000A5020000002243088B4274D37A
:1011200003098B425FD3030A8B4244D3030B8B42E8
:1011300028D3030C8B420DD3FF22090212BA030CF1
:101140008B4202D31212090265D0030B8B4219D3D2
:1011500000E0090AC30B8B4201D3CB03C01A5241F2
:10116000830B8B4201D38B03C01A5241430B8B423A
:1011700001D34B03C01A5241030B8B4201D30B0323
:10118000C01A5241C30A8B4201D3CB02C01A52414A
:10119000830A8B4201D38B02C01A5241430A8B420D
:1011A00001D34B02C01A5241030A8B4201D30B02F6
:1011B000C01A5241CDD2C3098B4201D3CB01C01A10
:1011C000524183098B4201D38B01C01A524143091A
:1011D0008B4201D34B01C01A524103098B4201D308
:1011E0000B01C01A5241C3088B4201D3CB00C01A75
:1011F000524183088B4201D38B00C01A52414308ED
:101200008B4201D34B00C01A5241411A00D2014611
:10121000524110467047FFE701B5002000F006F884
:1012200002BDC0460029F7D076E770477047C04638
:1012300070B500260C4D0D4C641BA410A64209D1BC
:10124000002600F03FF80A4D0A4C641BA410A64289
:1012500005D170BDB300EB5898470136EEE7B300F7
:10126000EB5898470136F2E7D0120000D012000088
:10127000D0120000D41200000D0E0000960A0000EB
:10128000920A0000920A0000F40A0000F40A00002A
:10129000AA0A00009C0A0000B00A0000E20A00004E
:1012A0007C0B00005C0B00005C0B0000E80B0000F6
:1012B0006E0B00008A0B0000600B0000980B000012
:1012C000D80B0000F8B5C046F8BC08BC9E46704775
:1012D000B5000000F8B5C046F8BC08BC9E46704793
:0412E0008D0000007D
:1012E40001000000401F0000080000000100000091
:0400000300001025C4
:00000001FF
